{
  "_format": "hh-sol-artifact-1",
  "contractName": "Domains",
  "sourceName": "contracts/Domains.sol",
  "abi": [
    {
      "inputs": [
        {
          "internalType": "string",
          "name": "_tld",
          "type": "string"
        }
      ],
      "stateMutability": "payable",
      "type": "constructor"
    },
    {
      "inputs": [],
      "name": "AlreadyRegistered",
      "type": "error"
    },
    {
      "inputs": [
        {
          "internalType": "string",
          "name": "name",
          "type": "string"
        }
      ],
      "name": "InvalidName",
      "type": "error"
    },
    {
      "inputs": [],
      "name": "Unauthorized",
      "type": "error"
    },
    {
      "anonymous": false,
      "inputs": [
        {
          "indexed": true,
          "internalType": "address",
          "name": "owner",
          "type": "address"
        },
        {
          "indexed": true,
          "internalType": "address",
          "name": "approved",
          "type": "address"
        },
        {
          "indexed": true,
          "internalType": "uint256",
          "name": "tokenId",
          "type": "uint256"
        }
      ],
      "name": "Approval",
      "type": "event"
    },
    {
      "anonymous": false,
      "inputs": [
        {
          "indexed": true,
          "internalType": "address",
          "name": "owner",
          "type": "address"
        },
        {
          "indexed": true,
          "internalType": "address",
          "name": "operator",
          "type": "address"
        },
        {
          "indexed": false,
          "internalType": "bool",
          "name": "approved",
          "type": "bool"
        }
      ],
      "name": "ApprovalForAll",
      "type": "event"
    },
    {
      "anonymous": false,
      "inputs": [
        {
          "indexed": true,
          "internalType": "address",
          "name": "from",
          "type": "address"
        },
        {
          "indexed": true,
          "internalType": "address",
          "name": "to",
          "type": "address"
        },
        {
          "indexed": true,
          "internalType": "uint256",
          "name": "tokenId",
          "type": "uint256"
        }
      ],
      "name": "Transfer",
      "type": "event"
    },
    {
      "inputs": [
        {
          "internalType": "address",
          "name": "to",
          "type": "address"
        },
        {
          "internalType": "uint256",
          "name": "tokenId",
          "type": "uint256"
        }
      ],
      "name": "approve",
      "outputs": [],
      "stateMutability": "nonpayable",
      "type": "function"
    },
    {
      "inputs": [
        {
          "internalType": "address",
          "name": "owner",
          "type": "address"
        }
      ],
      "name": "balanceOf",
      "outputs": [
        {
          "internalType": "uint256",
          "name": "",
          "type": "uint256"
        }
      ],
      "stateMutability": "view",
      "type": "function"
    },
    {
      "inputs": [
        {
          "internalType": "string",
          "name": "",
          "type": "string"
        }
      ],
      "name": "domains",
      "outputs": [
        {
          "internalType": "address",
          "name": "",
          "type": "address"
        }
      ],
      "stateMutability": "view",
      "type": "function"
    },
    {
      "inputs": [
        {
          "internalType": "string",
          "name": "name",
          "type": "string"
        }
      ],
      "name": "getAddress",
      "outputs": [
        {
          "internalType": "address",
          "name": "",
          "type": "address"
        }
      ],
      "stateMutability": "view",
      "type": "function"
    },
    {
      "inputs": [],
      "name": "getAllNames",
      "outputs": [
        {
          "internalType": "string[]",
          "name": "",
          "type": "string[]"
        }
      ],
      "stateMutability": "view",
      "type": "function"
    },
    {
      "inputs": [
        {
          "internalType": "uint256",
          "name": "tokenId",
          "type": "uint256"
        }
      ],
      "name": "getApproved",
      "outputs": [
        {
          "internalType": "address",
          "name": "",
          "type": "address"
        }
      ],
      "stateMutability": "view",
      "type": "function"
    },
    {
      "inputs": [
        {
          "internalType": "string",
          "name": "name",
          "type": "string"
        }
      ],
      "name": "getRecord",
      "outputs": [
        {
          "internalType": "string",
          "name": "",
          "type": "string"
        }
      ],
      "stateMutability": "view",
      "type": "function"
    },
    {
      "inputs": [
        {
          "internalType": "address",
          "name": "owner",
          "type": "address"
        },
        {
          "internalType": "address",
          "name": "operator",
          "type": "address"
        }
      ],
      "name": "isApprovedForAll",
      "outputs": [
        {
          "internalType": "bool",
          "name": "",
          "type": "bool"
        }
      ],
      "stateMutability": "view",
      "type": "function"
    },
    {
      "inputs": [],
      "name": "isOwner",
      "outputs": [
        {
          "internalType": "bool",
          "name": "",
          "type": "bool"
        }
      ],
      "stateMutability": "view",
      "type": "function"
    },
    {
      "inputs": [],
      "name": "name",
      "outputs": [
        {
          "internalType": "string",
          "name": "",
          "type": "string"
        }
      ],
      "stateMutability": "view",
      "type": "function"
    },
    {
      "inputs": [
        {
          "internalType": "uint256",
          "name": "",
          "type": "uint256"
        }
      ],
      "name": "names",
      "outputs": [
        {
          "internalType": "string",
          "name": "",
          "type": "string"
        }
      ],
      "stateMutability": "view",
      "type": "function"
    },
    {
      "inputs": [],
      "name": "owner",
      "outputs": [
        {
          "internalType": "address payable",
          "name": "",
          "type": "address"
        }
      ],
      "stateMutability": "view",
      "type": "function"
    },
    {
      "inputs": [
        {
          "internalType": "uint256",
          "name": "tokenId",
          "type": "uint256"
        }
      ],
      "name": "ownerOf",
      "outputs": [
        {
          "internalType": "address",
          "name": "",
          "type": "address"
        }
      ],
      "stateMutability": "view",
      "type": "function"
    },
    {
      "inputs": [
        {
          "internalType": "string",
          "name": "name",
          "type": "string"
        }
      ],
      "name": "price",
      "outputs": [
        {
          "internalType": "uint256",
          "name": "",
          "type": "uint256"
        }
      ],
      "stateMutability": "pure",
      "type": "function"
    },
    {
      "inputs": [
        {
          "internalType": "string",
          "name": "",
          "type": "string"
        }
      ],
      "name": "records",
      "outputs": [
        {
          "internalType": "string",
          "name": "",
          "type": "string"
        }
      ],
      "stateMutability": "view",
      "type": "function"
    },
    {
      "inputs": [
        {
          "internalType": "string",
          "name": "name",
          "type": "string"
        }
      ],
      "name": "register",
      "outputs": [],
      "stateMutability": "payable",
      "type": "function"
    },
    {
      "inputs": [
        {
          "internalType": "address",
          "name": "from",
          "type": "address"
        },
        {
          "internalType": "address",
          "name": "to",
          "type": "address"
        },
        {
          "internalType": "uint256",
          "name": "tokenId",
          "type": "uint256"
        }
      ],
      "name": "safeTransferFrom",
      "outputs": [],
      "stateMutability": "nonpayable",
      "type": "function"
    },
    {
      "inputs": [
        {
          "internalType": "address",
          "name": "from",
          "type": "address"
        },
        {
          "internalType": "address",
          "name": "to",
          "type": "address"
        },
        {
          "internalType": "uint256",
          "name": "tokenId",
          "type": "uint256"
        },
        {
          "internalType": "bytes",
          "name": "_data",
          "type": "bytes"
        }
      ],
      "name": "safeTransferFrom",
      "outputs": [],
      "stateMutability": "nonpayable",
      "type": "function"
    },
    {
      "inputs": [
        {
          "internalType": "address",
          "name": "operator",
          "type": "address"
        },
        {
          "internalType": "bool",
          "name": "approved",
          "type": "bool"
        }
      ],
      "name": "setApprovalForAll",
      "outputs": [],
      "stateMutability": "nonpayable",
      "type": "function"
    },
    {
      "inputs": [
        {
          "internalType": "string",
          "name": "name",
          "type": "string"
        },
        {
          "internalType": "string",
          "name": "record",
          "type": "string"
        }
      ],
      "name": "setRecord",
      "outputs": [],
      "stateMutability": "nonpayable",
      "type": "function"
    },
    {
      "inputs": [
        {
          "internalType": "bytes4",
          "name": "interfaceId",
          "type": "bytes4"
        }
      ],
      "name": "supportsInterface",
      "outputs": [
        {
          "internalType": "bool",
          "name": "",
          "type": "bool"
        }
      ],
      "stateMutability": "view",
      "type": "function"
    },
    {
      "inputs": [],
      "name": "symbol",
      "outputs": [
        {
          "internalType": "string",
          "name": "",
          "type": "string"
        }
      ],
      "stateMutability": "view",
      "type": "function"
    },
    {
      "inputs": [],
      "name": "tld",
      "outputs": [
        {
          "internalType": "string",
          "name": "",
          "type": "string"
        }
      ],
      "stateMutability": "view",
      "type": "function"
    },
    {
      "inputs": [
        {
          "internalType": "uint256",
          "name": "tokenId",
          "type": "uint256"
        }
      ],
      "name": "tokenURI",
      "outputs": [
        {
          "internalType": "string",
          "name": "",
          "type": "string"
        }
      ],
      "stateMutability": "view",
      "type": "function"
    },
    {
      "inputs": [
        {
          "internalType": "address",
          "name": "from",
          "type": "address"
        },
        {
          "internalType": "address",
          "name": "to",
          "type": "address"
        },
        {
          "internalType": "uint256",
          "name": "tokenId",
          "type": "uint256"
        }
      ],
      "name": "transferFrom",
      "outputs": [],
      "stateMutability": "nonpayable",
      "type": "function"
    },
    {
      "inputs": [
        {
          "internalType": "string",
          "name": "name",
          "type": "string"
        }
      ],
      "name": "valid",
      "outputs": [
        {
          "internalType": "bool",
          "name": "",
          "type": "bool"
        }
      ],
      "stateMutability": "pure",
      "type": "function"
    },
    {
      "inputs": [],
      "name": "withdraw",
      "outputs": [],
      "stateMutability": "nonpayable",
      "type": "function"
    }
  ],
  "bytecode": "0x6080604052604051806108a0016040528061086b81526020016200531a61086b9139600a908051906020019062000038929190620002c8565b506040518060400160405280600d81526020017f3c2f746578743e3c2f7376673e00000000000000000000000000000000000000815250600b908051906020019062000086929190620002c8565b5060405162005b8538038062005b858339818101604052810190620000ac919062000515565b6040518060400160405280601181526020017f5a617a75204e616d6520536572766963650000000000000000000000000000008152506040518060400160405280600381526020017f5a4e530000000000000000000000000000000000000000000000000000000000815250816000908051906020019062000130929190620002c8565b50806001908051906020019062000149929190620002c8565b50505033600960006101000a81548173ffffffffffffffffffffffffffffffffffffffff021916908373ffffffffffffffffffffffffffffffffffffffff1602179055508060089080519060200190620001a5929190620002c8565b50620001f26040518060400160405280601881526020017f2573206e616d652073657276696365206465706c6f796564000000000000000081525082620001f960201b62001bc81760201c565b5062000663565b6200029b828260405160240162000212929190620005c3565b6040516020818303038152906040527f4b5c4277000000000000000000000000000000000000000000000000000000007bffffffffffffffffffffffffffffffffffffffffffffffffffffffff19166020820180517bffffffffffffffffffffffffffffffffffffffffffffffffffffffff83818316178352505050506200029f60201b60201c565b5050565b60008151905060006a636f6e736f6c652e6c6f679050602083016000808483855afa5050505050565b828054620002d6906200062d565b90600052602060002090601f016020900481019282620002fa576000855562000346565b82601f106200031557805160ff191683800117855562000346565b8280016001018555821562000346579182015b828111156200034557825182559160200191906001019062000328565b5b50905062000355919062000359565b5090565b5b80821115620003745760008160009055506001016200035a565b5090565b6000604051905090565b600080fd5b600080fd5b600080fd5b600080fd5b6000601f19601f8301169050919050565b7f4e487b7100000000000000000000000000000000000000000000000000000000600052604160045260246000fd5b620003e18262000396565b810181811067ffffffffffffffff82111715620004035762000402620003a7565b5b80604052505050565b60006200041862000378565b9050620004268282620003d6565b919050565b600067ffffffffffffffff821115620004495762000448620003a7565b5b620004548262000396565b9050602081019050919050565b60005b838110156200048157808201518184015260208101905062000464565b8381111562000491576000848401525b50505050565b6000620004ae620004a8846200042b565b6200040c565b905082815260208101848484011115620004cd57620004cc62000391565b5b620004da84828562000461565b509392505050565b600082601f830112620004fa57620004f96200038c565b5b81516200050c84826020860162000497565b91505092915050565b6000602082840312156200052e576200052d62000382565b5b600082015167ffffffffffffffff8111156200054f576200054e62000387565b5b6200055d84828501620004e2565b91505092915050565b600081519050919050565b600082825260208201905092915050565b60006200058f8262000566565b6200059b818562000571565b9350620005ad81856020860162000461565b620005b88162000396565b840191505092915050565b60006040820190508181036000830152620005df818562000582565b90508181036020830152620005f5818462000582565b90509392505050565b7f4e487b7100000000000000000000000000000000000000000000000000000000600052602260045260246000fd5b600060028204905060018216806200064657607f821691505b602082108114156200065d576200065c620005fe565b5b50919050565b614ca780620006736000396000f3fe60806040526004361061019c5760003560e01c806370a08231116100ec578063bf40fac11161008a578063e985e9c511610064578063e985e9c514610624578063f2c298be14610661578063fb825e5f1461067d578063fe2c6198146106a85761019c565b8063bf40fac114610581578063c1880a98146105be578063c87b56dd146105e75761019c565b806395d89b41116100c657806395d89b41146104c75780639791c097146104f2578063a22cb4651461052f578063b88d4fde146105585761019c565b806370a08231146104345780638da5cb5b146104715780638f32d59b1461049c5761019c565b8063264492351161015957806342842e0e1161013357806342842e0e146103545780634622ab031461037d578063541e771d146103ba5780636352211e146103f75761019c565b806326449235146102d55780632d551432146103125780633ccfd60b1461033d5761019c565b806301ffc9a7146101a157806306fdde03146101de578063081812fc14610209578063095ea7b31461024657806311dd88451461026f57806323b872dd146102ac575b600080fd5b3480156101ad57600080fd5b506101c860048036038101906101c391906130ad565b6106e5565b6040516101d591906130f5565b60405180910390f35b3480156101ea57600080fd5b506101f36107c7565b60405161020091906131a9565b60405180910390f35b34801561021557600080fd5b50610230600480360381019061022b9190613201565b610859565b60405161023d919061326f565b60405180910390f35b34801561025257600080fd5b5061026d600480360381019061026891906132b6565b6108de565b005b34801561027b57600080fd5b506102966004803603810190610291919061335b565b6109f6565b6040516102a391906131a9565b60405180910390f35b3480156102b857600080fd5b506102d360048036038101906102ce91906133a8565b610aa9565b005b3480156102e157600080fd5b506102fc60048036038101906102f7919061352b565b610b09565b604051610309919061326f565b60405180910390f35b34801561031e57600080fd5b50610327610b52565b60405161033491906131a9565b60405180910390f35b34801561034957600080fd5b50610352610be0565b005b34801561036057600080fd5b5061037b600480360381019061037691906133a8565b610ca6565b005b34801561038957600080fd5b506103a4600480360381019061039f9190613201565b610cc6565b6040516103b191906131a9565b60405180910390f35b3480156103c657600080fd5b506103e160048036038101906103dc919061352b565b610d66565b6040516103ee91906131a9565b60405180910390f35b34801561040357600080fd5b5061041e60048036038101906104199190613201565b610e1c565b60405161042b919061326f565b60405180910390f35b34801561044057600080fd5b5061045b60048036038101906104569190613574565b610ece565b60405161046891906135b0565b60405180910390f35b34801561047d57600080fd5b50610486610f86565b60405161049391906135ec565b60405180910390f35b3480156104a857600080fd5b506104b1610fac565b6040516104be91906130f5565b60405180910390f35b3480156104d357600080fd5b506104dc611004565b6040516104e991906131a9565b60405180910390f35b3480156104fe57600080fd5b506105196004803603810190610514919061335b565b611096565b60405161052691906130f5565b60405180910390f35b34801561053b57600080fd5b5061055660048036038101906105519190613633565b61114a565b005b34801561056457600080fd5b5061057f600480360381019061057a9190613714565b611160565b005b34801561058d57600080fd5b506105a860048036038101906105a3919061335b565b6111c2565b6040516105b5919061326f565b60405180910390f35b3480156105ca57600080fd5b506105e560048036038101906105e09190613797565b61120d565b005b3480156105f357600080fd5b5061060e60048036038101906106099190613201565b6112e8565b60405161061b91906131a9565b60405180910390f35b34801561063057600080fd5b5061064b60048036038101906106469190613818565b61143a565b60405161065891906130f5565b60405180910390f35b61067b6004803603810190610676919061335b565b6114ce565b005b34801561068957600080fd5b50610692611944565b60405161069f9190613964565b60405180910390f35b3480156106b457600080fd5b506106cf60048036038101906106ca919061335b565b611b22565b6040516106dc91906135b0565b60405180910390f35b60007f80ac58cd000000000000000000000000000000000000000000000000000000007bffffffffffffffffffffffffffffffffffffffffffffffffffffffff1916827bffffffffffffffffffffffffffffffffffffffffffffffffffffffff191614806107b057507f5b5e139f000000000000000000000000000000000000000000000000000000007bffffffffffffffffffffffffffffffffffffffffffffffffffffffff1916827bffffffffffffffffffffffffffffffffffffffffffffffffffffffff1916145b806107c057506107bf82611c64565b5b9050919050565b6060600080546107d6906139b5565b80601f0160208091040260200160405190810160405280929190818152602001828054610802906139b5565b801561084f5780601f106108245761010080835404028352916020019161084f565b820191906000526020600020905b81548152906001019060200180831161083257829003601f168201915b5050505050905090565b600061086482611cce565b6108a3576040517f08c379a000000000000000000000000000000000000000000000000000000000815260040161089a90613a59565b60405180910390fd5b6004600083815260200190815260200160002060009054906101000a900473ffffffffffffffffffffffffffffffffffffffff169050919050565b60006108e982610e1c565b90508073ffffffffffffffffffffffffffffffffffffffff168373ffffffffffffffffffffffffffffffffffffffff16141561095a576040517f08c379a000000000000000000000000000000000000000000000000000000000815260040161095190613aeb565b60405180910390fd5b8073ffffffffffffffffffffffffffffffffffffffff16610979611d3a565b73ffffffffffffffffffffffffffffffffffffffff1614806109a857506109a7816109a2611d3a565b61143a565b5b6109e7576040517f08c379a00000000000000000000000000000000000000000000000000000000081526004016109de90613b7d565b60405180910390fd5b6109f18383611d42565b505050565b6060600d8383604051610a0a929190613bcd565b90815260200160405180910390208054610a23906139b5565b80601f0160208091040260200160405190810160405280929190818152602001828054610a4f906139b5565b8015610a9c5780601f10610a7157610100808354040283529160200191610a9c565b820191906000526020600020905b815481529060010190602001808311610a7f57829003601f168201915b5050505050905092915050565b610aba610ab4611d3a565b82611dfb565b610af9576040517f08c379a0000000000000000000000000000000000000000000000000000000008152600401610af090613c58565b60405180910390fd5b610b04838383611ed9565b505050565b600c818051602081018201805184825260208301602085012081835280955050505050506000915054906101000a900473ffffffffffffffffffffffffffffffffffffffff1681565b60088054610b5f906139b5565b80601f0160208091040260200160405190810160405280929190818152602001828054610b8b906139b5565b8015610bd85780601f10610bad57610100808354040283529160200191610bd8565b820191906000526020600020905b815481529060010190602001808311610bbb57829003601f168201915b505050505081565b610be8610fac565b610bf157600080fd5b600047905060003373ffffffffffffffffffffffffffffffffffffffff1682604051610c1c90613ca9565b60006040518083038185875af1925050503d8060008114610c59576040519150601f19603f3d011682016040523d82523d6000602084013e610c5e565b606091505b5050905080610ca2576040517f08c379a0000000000000000000000000000000000000000000000000000000008152600401610c9990613d0a565b60405180910390fd5b5050565b610cc183838360405180602001604052806000815250611160565b505050565b600e6020528060005260406000206000915090508054610ce5906139b5565b80601f0160208091040260200160405190810160405280929190818152602001828054610d11906139b5565b8015610d5e5780601f10610d3357610100808354040283529160200191610d5e565b820191906000526020600020905b815481529060010190602001808311610d4157829003601f168201915b505050505081565b600d818051602081018201805184825260208301602085012081835280955050505050506000915090508054610d9b906139b5565b80601f0160208091040260200160405190810160405280929190818152602001828054610dc7906139b5565b8015610e145780601f10610de957610100808354040283529160200191610e14565b820191906000526020600020905b815481529060010190602001808311610df757829003601f168201915b505050505081565b6000806002600084815260200190815260200160002060009054906101000a900473ffffffffffffffffffffffffffffffffffffffff169050600073ffffffffffffffffffffffffffffffffffffffff168173ffffffffffffffffffffffffffffffffffffffff161415610ec5576040517f08c379a0000000000000000000000000000000000000000000000000000000008152600401610ebc90613d9c565b60405180910390fd5b80915050919050565b60008073ffffffffffffffffffffffffffffffffffffffff168273ffffffffffffffffffffffffffffffffffffffff161415610f3f576040517f08c379a0000000000000000000000000000000000000000000000000000000008152600401610f3690613e2e565b60405180910390fd5b600360008373ffffffffffffffffffffffffffffffffffffffff1673ffffffffffffffffffffffffffffffffffffffff168152602001908152602001600020549050919050565b600960009054906101000a900473ffffffffffffffffffffffffffffffffffffffff1681565b6000600960009054906101000a900473ffffffffffffffffffffffffffffffffffffffff1673ffffffffffffffffffffffffffffffffffffffff163373ffffffffffffffffffffffffffffffffffffffff1614905090565b606060018054611013906139b5565b80601f016020809104026020016040519081016040528092919081815260200182805461103f906139b5565b801561108c5780601f106110615761010080835404028352916020019161108c565b820191906000526020600020905b81548152906001019060200180831161106f57829003601f168201915b5050505050905090565b600060036110e784848080601f016020809104026020016040519081016040528093929190818152602001838380828437600081840152601f19601f82011690508083019250505050505050612140565b101580156111425750600a61113f84848080601f016020809104026020016040519081016040528093929190818152602001838380828437600081840152601f19601f82011690508083019250505050505050612140565b11155b905092915050565b61115c611155611d3a565b83836122f5565b5050565b61117161116b611d3a565b83611dfb565b6111b0576040517f08c379a00000000000000000000000000000000000000000000000000000000081526004016111a790613c58565b60405180910390fd5b6111bc84848484612462565b50505050565b6000600c83836040516111d6929190613bcd565b908152602001604051809103902060009054906101000a900473ffffffffffffffffffffffffffffffffffffffff16905092915050565b600c848460405161121f929190613bcd565b908152602001604051809103902060009054906101000a900473ffffffffffffffffffffffffffffffffffffffff1673ffffffffffffffffffffffffffffffffffffffff163373ffffffffffffffffffffffffffffffffffffffff16146112b2576040517f82b4290000000000000000000000000000000000000000000000000000000000815260040160405180910390fd5b8181600d86866040516112c6929190613bcd565b908152602001604051809103902091906112e1929190612f18565b5050505050565b60606112f382611cce565b611332576040517f08c379a000000000000000000000000000000000000000000000000000000000815260040161132990613ec0565b60405180910390fd5b6000600660008481526020019081526020016000208054611352906139b5565b80601f016020809104026020016040519081016040528092919081815260200182805461137e906139b5565b80156113cb5780601f106113a0576101008083540402835291602001916113cb565b820191906000526020600020905b8154815290600101906020018083116113ae57829003601f168201915b5050505050905060006113dc6124be565b90506000815114156113f2578192505050611435565b60008251111561142757808260405160200161140f929190613f11565b60405160208183030381529060405292505050611435565b611430846124d5565b925050505b919050565b6000600560008473ffffffffffffffffffffffffffffffffffffffff1673ffffffffffffffffffffffffffffffffffffffff16815260200190815260200160002060008373ffffffffffffffffffffffffffffffffffffffff1673ffffffffffffffffffffffffffffffffffffffff16815260200190815260200160002060009054906101000a900460ff16905092915050565b600073ffffffffffffffffffffffffffffffffffffffff16600c83836040516114f8929190613bcd565b908152602001604051809103902060009054906101000a900473ffffffffffffffffffffffffffffffffffffffff1673ffffffffffffffffffffffffffffffffffffffff1614611574576040517f3a81d6fc00000000000000000000000000000000000000000000000000000000815260040160405180910390fd5b61157e8282611096565b6115c15781816040517f7f19f48d0000000000000000000000000000000000000000000000000000000081526004016115b8929190613f62565b60405180910390fd5b600073ffffffffffffffffffffffffffffffffffffffff16600c83836040516115eb929190613bcd565b908152602001604051809103902060009054906101000a900473ffffffffffffffffffffffffffffffffffffffff1673ffffffffffffffffffffffffffffffffffffffff161461163a57600080fd5b60006116468383611b22565b90508034101561168b576040517f08c379a000000000000000000000000000000000000000000000000000000000815260040161168290613fd2565b60405180910390fd5b6000838360086040516020016116a3939291906140d2565b60405160208183030381529060405290506000600a82600b6040516020016116cd93929190614103565b604051602081830303815290604052905060006116ea600761257c565b9050600061173b87878080601f016020809104026020016040519081016040528093929190818152602001838380828437600081840152601f19601f82011690508083019250505050505050612140565b905060006117488261258a565b905061183c604051806060016040528060318152602001614c016031913989898080601f016020809104026020016040519081016040528093929190818152602001838380828437600081840152601f19601f82011690508083019250505050505050600880546117b8906139b5565b80601f01602080910402602001604051908101604052809291908181526020018280546117e4906139b5565b80156118315780601f1061180657610100808354040283529160200191611831565b820191906000526020600020905b81548152906001019060200180831161181457829003601f168201915b5050505050866126eb565b60006118728661184b8761278d565b8460405160200161185e939291906142b0565b60405160208183030381529060405261278d565b90506000816040516020016118879190614359565b60405160208183030381529060405290506118a23386612925565b6118ac8582612943565b33600c8b8b6040516118bf929190613bcd565b908152602001604051809103902060006101000a81548173ffffffffffffffffffffffffffffffffffffffff021916908373ffffffffffffffffffffffffffffffffffffffff16021790555061191560076129b7565b8989600e60008881526020019081526020016000209190611937929190612f18565b5050505050505050505050565b60606119846040518060400160405280601f81526020017f47657474696e6720616c6c206e616d65732066726f6d20636f6e7472616374008152506129cd565b6000611990600761257c565b67ffffffffffffffff8111156119a9576119a8613400565b5b6040519080825280602002602001820160405280156119dc57816020015b60608152602001906001900390816119c75790505b50905060005b6119ec600761257c565b811015611b1a57600e60008281526020019081526020016000208054611a11906139b5565b80601f0160208091040260200160405190810160405280929190818152602001828054611a3d906139b5565b8015611a8a5780601f10611a5f57610100808354040283529160200191611a8a565b820191906000526020600020905b815481529060010190602001808311611a6d57829003601f168201915b5050505050828281518110611aa257611aa161437b565b5b6020026020010181905250611b076040518060400160405280601781526020017f4e616d6520666f7220746f6b656e20256420697320257300000000000000000081525082848481518110611afa57611af961437b565b5b6020026020010151612a66565b8080611b12906143d9565b9150506119e2565b508091505090565b600080611b7284848080601f016020809104026020016040519081016040528093929190818152602001838380828437600081840152601f19601f82011690508083019250505050505050612140565b905060008111611b8157600080fd5b6003811415611b9b576706f05b59d3b20000915050611bc2565b6004811415611bb557670429d069189e0000915050611bc2565b67016345785d8a00009150505b92915050565b611c608282604051602401611bde929190614422565b6040516020818303038152906040527f4b5c4277000000000000000000000000000000000000000000000000000000007bffffffffffffffffffffffffffffffffffffffffffffffffffffffff19166020820180517bffffffffffffffffffffffffffffffffffffffffffffffffffffffff8381831617835250505050612b05565b5050565b60007f01ffc9a7000000000000000000000000000000000000000000000000000000007bffffffffffffffffffffffffffffffffffffffffffffffffffffffff1916827bffffffffffffffffffffffffffffffffffffffffffffffffffffffff1916149050919050565b60008073ffffffffffffffffffffffffffffffffffffffff166002600084815260200190815260200160002060009054906101000a900473ffffffffffffffffffffffffffffffffffffffff1673ffffffffffffffffffffffffffffffffffffffff1614159050919050565b600033905090565b816004600083815260200190815260200160002060006101000a81548173ffffffffffffffffffffffffffffffffffffffff021916908373ffffffffffffffffffffffffffffffffffffffff160217905550808273ffffffffffffffffffffffffffffffffffffffff16611db583610e1c565b73ffffffffffffffffffffffffffffffffffffffff167f8c5be1e5ebec7d5bd14f71427d1e84f3dd0314c0f7b2291e5b200ac8c7c3b92560405160405180910390a45050565b6000611e0682611cce565b611e45576040517f08c379a0000000000000000000000000000000000000000000000000000000008152600401611e3c906144cb565b60405180910390fd5b6000611e5083610e1c565b90508073ffffffffffffffffffffffffffffffffffffffff168473ffffffffffffffffffffffffffffffffffffffff161480611ebf57508373ffffffffffffffffffffffffffffffffffffffff16611ea784610859565b73ffffffffffffffffffffffffffffffffffffffff16145b80611ed05750611ecf818561143a565b5b91505092915050565b8273ffffffffffffffffffffffffffffffffffffffff16611ef982610e1c565b73ffffffffffffffffffffffffffffffffffffffff1614611f4f576040517f08c379a0000000000000000000000000000000000000000000000000000000008152600401611f469061455d565b60405180910390fd5b600073ffffffffffffffffffffffffffffffffffffffff168273ffffffffffffffffffffffffffffffffffffffff161415611fbf576040517f08c379a0000000000000000000000000000000000000000000000000000000008152600401611fb6906145ef565b60405180910390fd5b611fca838383612b2e565b611fd5600082611d42565b6001600360008573ffffffffffffffffffffffffffffffffffffffff1673ffffffffffffffffffffffffffffffffffffffff1681526020019081526020016000206000828254612025919061460f565b925050819055506001600360008473ffffffffffffffffffffffffffffffffffffffff1673ffffffffffffffffffffffffffffffffffffffff168152602001908152602001600020600082825461207c9190614643565b92505081905550816002600083815260200190815260200160002060006101000a81548173ffffffffffffffffffffffffffffffffffffffff021916908373ffffffffffffffffffffffffffffffffffffffff160217905550808273ffffffffffffffffffffffffffffffffffffffff168473ffffffffffffffffffffffffffffffffffffffff167fddf252ad1be2c89b69c2b068fc378daa952ba7f163c4a11628f55a4df523b3ef60405160405180910390a461213b838383612b33565b505050565b60008060008084519050600092505b808210156122ea57600085838151811061216c5761216b61437b565b5b602001015160f81c60f81b9050608060f81b817effffffffffffffffffffffffffffffffffffffffffffffffffffffffffffff191610156121bb576001836121b49190614643565b92506122d6565b60e060f81b817effffffffffffffffffffffffffffffffffffffffffffffffffffffffffffff191610156121fd576002836121f69190614643565b92506122d5565b60f060f81b817effffffffffffffffffffffffffffffffffffffffffffffffffffffffffffff1916101561223f576003836122389190614643565b92506122d4565b60f8801b817effffffffffffffffffffffffffffffffffffffffffffffffffffffffffffff19161015612280576004836122799190614643565b92506122d3565b60fc60f81b817effffffffffffffffffffffffffffffffffffffffffffffffffffffffffffff191610156122c2576005836122bb9190614643565b92506122d2565b6006836122cf9190614643565b92505b5b5b5b5b5082806122e2906143d9565b93505061214f565b829350505050919050565b8173ffffffffffffffffffffffffffffffffffffffff168373ffffffffffffffffffffffffffffffffffffffff161415612364576040517f08c379a000000000000000000000000000000000000000000000000000000000815260040161235b906146e5565b60405180910390fd5b80600560008573ffffffffffffffffffffffffffffffffffffffff1673ffffffffffffffffffffffffffffffffffffffff16815260200190815260200160002060008473ffffffffffffffffffffffffffffffffffffffff1673ffffffffffffffffffffffffffffffffffffffff16815260200190815260200160002060006101000a81548160ff0219169083151502179055508173ffffffffffffffffffffffffffffffffffffffff168373ffffffffffffffffffffffffffffffffffffffff167f17307eab39ab6107e8899845ad3d59bd9653f200f220920489ca2b5937696c318360405161245591906130f5565b60405180910390a3505050565b61246d848484611ed9565b61247984848484612b38565b6124b8576040517f08c379a00000000000000000000000000000000000000000000000000000000081526004016124af90614777565b60405180910390fd5b50505050565b606060405180602001604052806000815250905090565b60606124e082611cce565b61251f576040517f08c379a000000000000000000000000000000000000000000000000000000000815260040161251690614809565b60405180910390fd5b60006125296124be565b905060008151116125495760405180602001604052806000815250612574565b806125538461258a565b604051602001612564929190613f11565b6040516020818303038152906040525b915050919050565b600081600001549050919050565b606060008214156125d2576040518060400160405280600181526020017f300000000000000000000000000000000000000000000000000000000000000081525090506126e6565b600082905060005b600082146126045780806125ed906143d9565b915050600a826125fd9190614858565b91506125da565b60008167ffffffffffffffff8111156126205761261f613400565b5b6040519080825280601f01601f1916602001820160405280156126525781602001600182028036833780820191505090505b5090505b600085146126df5760018261266b919061460f565b9150600a8561267a9190614889565b60306126869190614643565b60f81b81838151811061269c5761269b61437b565b5b60200101907effffffffffffffffffffffffffffffffffffffffffffffffffffffffffffff1916908160001a905350600a856126d89190614858565b9450612656565b8093505050505b919050565b6127878484848460405160240161270594939291906148ba565b6040516020818303038152906040527f9fd009f5000000000000000000000000000000000000000000000000000000007bffffffffffffffffffffffffffffffffffffffffffffffffffffffff19166020820180517bffffffffffffffffffffffffffffffffffffffffffffffffffffffff8381831617835250505050612b05565b50505050565b606060008251905060008114156127b65760405180602001604052806000815250915050612920565b600060036002836127c79190614643565b6127d19190614858565b60046127dd9190614914565b905060006020826127ee9190614643565b67ffffffffffffffff81111561280757612806613400565b5b6040519080825280601f01601f1916602001820160405280156128395781602001600182028036833780820191505090505b5090506000604051806060016040528060408152602001614c32604091399050600181016020830160005b868110156128dd5760038101905062ffffff818a015116603f8160121c168401518060081b905060ff603f83600c1c1686015116810190508060081b905060ff603f8360061c1686015116810190508060081b905060ff603f831686015116810190508060e01b90508084526004840193505050612864565b5060038606600181146128f7576002811461290757612912565b613d3d60f01b6002830352612912565b603d60f81b60018303525b508484525050819450505050505b919050565b61293f828260405180602001604052806000815250612cc0565b5050565b61294c82611cce565b61298b576040517f08c379a0000000000000000000000000000000000000000000000000000000008152600401612982906149e0565b60405180910390fd5b806006600084815260200190815260200160002090805190602001906129b2929190612f9e565b505050565b6001816000016000828254019250508190555050565b612a63816040516024016129e191906131a9565b6040516020818303038152906040527f41304fac000000000000000000000000000000000000000000000000000000007bffffffffffffffffffffffffffffffffffffffffffffffffffffffff19166020820180517bffffffffffffffffffffffffffffffffffffffffffffffffffffffff8381831617835250505050612b05565b50565b612b00838383604051602401612a7e93929190614a00565b6040516020818303038152906040527fa3f5c739000000000000000000000000000000000000000000000000000000007bffffffffffffffffffffffffffffffffffffffffffffffffffffffff19166020820180517bffffffffffffffffffffffffffffffffffffffffffffffffffffffff8381831617835250505050612b05565b505050565b60008151905060006a636f6e736f6c652e6c6f679050602083016000808483855afa5050505050565b505050565b505050565b6000612b598473ffffffffffffffffffffffffffffffffffffffff16612d1b565b15612cb3578373ffffffffffffffffffffffffffffffffffffffff1663150b7a02612b82611d3a565b8786866040518563ffffffff1660e01b8152600401612ba49493929190614a9a565b6020604051808303816000875af1925050508015612be057506040513d601f19601f82011682018060405250810190612bdd9190614afb565b60015b612c63573d8060008114612c10576040519150601f19603f3d011682016040523d82523d6000602084013e612c15565b606091505b50600081511415612c5b576040517f08c379a0000000000000000000000000000000000000000000000000000000008152600401612c5290614777565b60405180910390fd5b805181602001fd5b63150b7a0260e01b7bffffffffffffffffffffffffffffffffffffffffffffffffffffffff1916817bffffffffffffffffffffffffffffffffffffffffffffffffffffffff191614915050612cb8565b600190505b949350505050565b612cca8383612d3e565b612cd76000848484612b38565b612d16576040517f08c379a0000000000000000000000000000000000000000000000000000000008152600401612d0d90614777565b60405180910390fd5b505050565b6000808273ffffffffffffffffffffffffffffffffffffffff163b119050919050565b600073ffffffffffffffffffffffffffffffffffffffff168273ffffffffffffffffffffffffffffffffffffffff161415612dae576040517f08c379a0000000000000000000000000000000000000000000000000000000008152600401612da590614b74565b60405180910390fd5b612db781611cce565b15612df7576040517f08c379a0000000000000000000000000000000000000000000000000000000008152600401612dee90614be0565b60405180910390fd5b612e0360008383612b2e565b6001600360008473ffffffffffffffffffffffffffffffffffffffff1673ffffffffffffffffffffffffffffffffffffffff1681526020019081526020016000206000828254612e539190614643565b92505081905550816002600083815260200190815260200160002060006101000a81548173ffffffffffffffffffffffffffffffffffffffff021916908373ffffffffffffffffffffffffffffffffffffffff160217905550808273ffffffffffffffffffffffffffffffffffffffff16600073ffffffffffffffffffffffffffffffffffffffff167fddf252ad1be2c89b69c2b068fc378daa952ba7f163c4a11628f55a4df523b3ef60405160405180910390a4612f1460008383612b33565b5050565b828054612f24906139b5565b90600052602060002090601f016020900481019282612f465760008555612f8d565b82601f10612f5f57803560ff1916838001178555612f8d565b82800160010185558215612f8d579182015b82811115612f8c578235825591602001919060010190612f71565b5b509050612f9a9190613024565b5090565b828054612faa906139b5565b90600052602060002090601f016020900481019282612fcc5760008555613013565b82601f10612fe557805160ff1916838001178555613013565b82800160010185558215613013579182015b82811115613012578251825591602001919060010190612ff7565b5b5090506130209190613024565b5090565b5b8082111561303d576000816000905550600101613025565b5090565b6000604051905090565b600080fd5b600080fd5b60007fffffffff0000000000000000000000000000000000000000000000000000000082169050919050565b61308a81613055565b811461309557600080fd5b50565b6000813590506130a781613081565b92915050565b6000602082840312156130c3576130c261304b565b5b60006130d184828501613098565b91505092915050565b60008115159050919050565b6130ef816130da565b82525050565b600060208201905061310a60008301846130e6565b92915050565b600081519050919050565b600082825260208201905092915050565b60005b8381101561314a57808201518184015260208101905061312f565b83811115613159576000848401525b50505050565b6000601f19601f8301169050919050565b600061317b82613110565b613185818561311b565b935061319581856020860161312c565b61319e8161315f565b840191505092915050565b600060208201905081810360008301526131c38184613170565b905092915050565b6000819050919050565b6131de816131cb565b81146131e957600080fd5b50565b6000813590506131fb816131d5565b92915050565b6000602082840312156132175761321661304b565b5b6000613225848285016131ec565b91505092915050565b600073ffffffffffffffffffffffffffffffffffffffff82169050919050565b60006132598261322e565b9050919050565b6132698161324e565b82525050565b60006020820190506132846000830184613260565b92915050565b6132938161324e565b811461329e57600080fd5b50565b6000813590506132b08161328a565b92915050565b600080604083850312156132cd576132cc61304b565b5b60006132db858286016132a1565b92505060206132ec858286016131ec565b9150509250929050565b600080fd5b600080fd5b600080fd5b60008083601f84011261331b5761331a6132f6565b5b8235905067ffffffffffffffff811115613338576133376132fb565b5b60208301915083600182028301111561335457613353613300565b5b9250929050565b600080602083850312156133725761337161304b565b5b600083013567ffffffffffffffff8111156133905761338f613050565b5b61339c85828601613305565b92509250509250929050565b6000806000606084860312156133c1576133c061304b565b5b60006133cf868287016132a1565b93505060206133e0868287016132a1565b92505060406133f1868287016131ec565b9150509250925092565b600080fd5b7f4e487b7100000000000000000000000000000000000000000000000000000000600052604160045260246000fd5b6134388261315f565b810181811067ffffffffffffffff8211171561345757613456613400565b5b80604052505050565b600061346a613041565b9050613476828261342f565b919050565b600067ffffffffffffffff82111561349657613495613400565b5b61349f8261315f565b9050602081019050919050565b82818337600083830152505050565b60006134ce6134c98461347b565b613460565b9050828152602081018484840111156134ea576134e96133fb565b5b6134f58482856134ac565b509392505050565b600082601f830112613512576135116132f6565b5b81356135228482602086016134bb565b91505092915050565b6000602082840312156135415761354061304b565b5b600082013567ffffffffffffffff81111561355f5761355e613050565b5b61356b848285016134fd565b91505092915050565b60006020828403121561358a5761358961304b565b5b6000613598848285016132a1565b91505092915050565b6135aa816131cb565b82525050565b60006020820190506135c560008301846135a1565b92915050565b60006135d68261322e565b9050919050565b6135e6816135cb565b82525050565b600060208201905061360160008301846135dd565b92915050565b613610816130da565b811461361b57600080fd5b50565b60008135905061362d81613607565b92915050565b6000806040838503121561364a5761364961304b565b5b6000613658858286016132a1565b92505060206136698582860161361e565b9150509250929050565b600067ffffffffffffffff82111561368e5761368d613400565b5b6136978261315f565b9050602081019050919050565b60006136b76136b284613673565b613460565b9050828152602081018484840111156136d3576136d26133fb565b5b6136de8482856134ac565b509392505050565b600082601f8301126136fb576136fa6132f6565b5b813561370b8482602086016136a4565b91505092915050565b6000806000806080858703121561372e5761372d61304b565b5b600061373c878288016132a1565b945050602061374d878288016132a1565b935050604061375e878288016131ec565b925050606085013567ffffffffffffffff81111561377f5761377e613050565b5b61378b878288016136e6565b91505092959194509250565b600080600080604085870312156137b1576137b061304b565b5b600085013567ffffffffffffffff8111156137cf576137ce613050565b5b6137db87828801613305565b9450945050602085013567ffffffffffffffff8111156137fe576137fd613050565b5b61380a87828801613305565b925092505092959194509250565b6000806040838503121561382f5761382e61304b565b5b600061383d858286016132a1565b925050602061384e858286016132a1565b9150509250929050565b600081519050919050565b600082825260208201905092915050565b6000819050602082019050919050565b600082825260208201905092915050565b60006138a082613110565b6138aa8185613884565b93506138ba81856020860161312c565b6138c38161315f565b840191505092915050565b60006138da8383613895565b905092915050565b6000602082019050919050565b60006138fa82613858565b6139048185613863565b93508360208202850161391685613874565b8060005b85811015613952578484038952815161393385826138ce565b945061393e836138e2565b925060208a0199505060018101905061391a565b50829750879550505050505092915050565b6000602082019050818103600083015261397e81846138ef565b905092915050565b7f4e487b7100000000000000000000000000000000000000000000000000000000600052602260045260246000fd5b600060028204905060018216806139cd57607f821691505b602082108114156139e1576139e0613986565b5b50919050565b7f4552433732313a20617070726f76656420717565727920666f72206e6f6e657860008201527f697374656e7420746f6b656e0000000000000000000000000000000000000000602082015250565b6000613a43602c8361311b565b9150613a4e826139e7565b604082019050919050565b60006020820190508181036000830152613a7281613a36565b9050919050565b7f4552433732313a20617070726f76616c20746f2063757272656e74206f776e6560008201527f7200000000000000000000000000000000000000000000000000000000000000602082015250565b6000613ad560218361311b565b9150613ae082613a79565b604082019050919050565b60006020820190508181036000830152613b0481613ac8565b9050919050565b7f4552433732313a20617070726f76652063616c6c6572206973206e6f74206f7760008201527f6e6572206e6f7220617070726f76656420666f7220616c6c0000000000000000602082015250565b6000613b6760388361311b565b9150613b7282613b0b565b604082019050919050565b60006020820190508181036000830152613b9681613b5a565b9050919050565b600081905092915050565b6000613bb48385613b9d565b9350613bc18385846134ac565b82840190509392505050565b6000613bda828486613ba8565b91508190509392505050565b7f4552433732313a207472616e736665722063616c6c6572206973206e6f74206f60008201527f776e6572206e6f7220617070726f766564000000000000000000000000000000602082015250565b6000613c4260318361311b565b9150613c4d82613be6565b604082019050919050565b60006020820190508181036000830152613c7181613c35565b9050919050565b600081905092915050565b50565b6000613c93600083613c78565b9150613c9e82613c83565b600082019050919050565b6000613cb482613c86565b9150819050919050565b7f4661696c656420746f207769746864726177204d617469630000000000000000600082015250565b6000613cf460188361311b565b9150613cff82613cbe565b602082019050919050565b60006020820190508181036000830152613d2381613ce7565b9050919050565b7f4552433732313a206f776e657220717565727920666f72206e6f6e657869737460008201527f656e7420746f6b656e0000000000000000000000000000000000000000000000602082015250565b6000613d8660298361311b565b9150613d9182613d2a565b604082019050919050565b60006020820190508181036000830152613db581613d79565b9050919050565b7f4552433732313a2062616c616e636520717565727920666f7220746865207a6560008201527f726f206164647265737300000000000000000000000000000000000000000000602082015250565b6000613e18602a8361311b565b9150613e2382613dbc565b604082019050919050565b60006020820190508181036000830152613e4781613e0b565b9050919050565b7f45524337323155524953746f726167653a2055524920717565727920666f722060008201527f6e6f6e6578697374656e7420746f6b656e000000000000000000000000000000602082015250565b6000613eaa60318361311b565b9150613eb582613e4e565b604082019050919050565b60006020820190508181036000830152613ed981613e9d565b9050919050565b6000613eeb82613110565b613ef58185613b9d565b9350613f0581856020860161312c565b80840191505092915050565b6000613f1d8285613ee0565b9150613f298284613ee0565b91508190509392505050565b6000613f41838561311b565b9350613f4e8385846134ac565b613f578361315f565b840190509392505050565b60006020820190508181036000830152613f7d818486613f35565b90509392505050565b7f4e6f7420656e6f756768204d6174696320706169640000000000000000000000600082015250565b6000613fbc60158361311b565b9150613fc782613f86565b602082019050919050565b60006020820190508181036000830152613feb81613faf565b9050919050565b7f2e00000000000000000000000000000000000000000000000000000000000000600082015250565b6000614028600183613b9d565b915061403382613ff2565b600182019050919050565b60008190508160005260206000209050919050565b60008154614060816139b5565b61406a8186613b9d565b945060018216600081146140855760018114614096576140c9565b60ff198316865281860193506140c9565b61409f8561403e565b60005b838110156140c1578154818901526001820191506020810190506140a2565b838801955050505b50505092915050565b60006140df828587613ba8565b91506140ea8261401b565b91506140f68284614053565b9150819050949350505050565b600061410f8286614053565b915061411b8285613ee0565b91506141278284614053565b9150819050949350505050565b7f7b226e616d65223a202200000000000000000000000000000000000000000000600082015250565b600061416a600a83613b9d565b915061417582614134565b600a82019050919050565b7f222c20226465736372697074696f6e223a20224120646f6d61696e206f6e207460008201527f6865205a617a75206e616d652073657276696365222c2022696d616765223a2060208201527f22646174613a696d6167652f7376672b786d6c3b6261736536342c0000000000604082015250565b6000614202605b83613b9d565b915061420d82614180565b605b82019050919050565b7f222c226c656e677468223a220000000000000000000000000000000000000000600082015250565b600061424e600c83613b9d565b915061425982614218565b600c82019050919050565b7f227d000000000000000000000000000000000000000000000000000000000000600082015250565b600061429a600283613b9d565b91506142a582614264565b600282019050919050565b60006142bb8261415d565b91506142c78286613ee0565b91506142d2826141f5565b91506142de8285613ee0565b91506142e982614241565b91506142f58284613ee0565b91506143008261428d565b9150819050949350505050565b7f646174613a6170706c69636174696f6e2f6a736f6e3b6261736536342c000000600082015250565b6000614343601d83613b9d565b915061434e8261430d565b601d82019050919050565b600061436482614336565b91506143708284613ee0565b915081905092915050565b7f4e487b7100000000000000000000000000000000000000000000000000000000600052603260045260246000fd5b7f4e487b7100000000000000000000000000000000000000000000000000000000600052601160045260246000fd5b60006143e4826131cb565b91507fffffffffffffffffffffffffffffffffffffffffffffffffffffffffffffffff821415614417576144166143aa565b5b600182019050919050565b6000604082019050818103600083015261443c8185613170565b905081810360208301526144508184613170565b90509392505050565b7f4552433732313a206f70657261746f7220717565727920666f72206e6f6e657860008201527f697374656e7420746f6b656e0000000000000000000000000000000000000000602082015250565b60006144b5602c8361311b565b91506144c082614459565b604082019050919050565b600060208201905081810360008301526144e4816144a8565b9050919050565b7f4552433732313a207472616e736665722066726f6d20696e636f72726563742060008201527f6f776e6572000000000000000000000000000000000000000000000000000000602082015250565b600061454760258361311b565b9150614552826144eb565b604082019050919050565b600060208201905081810360008301526145768161453a565b9050919050565b7f4552433732313a207472616e7366657220746f20746865207a65726f2061646460008201527f7265737300000000000000000000000000000000000000000000000000000000602082015250565b60006145d960248361311b565b91506145e48261457d565b604082019050919050565b60006020820190508181036000830152614608816145cc565b9050919050565b600061461a826131cb565b9150614625836131cb565b925082821015614638576146376143aa565b5b828203905092915050565b600061464e826131cb565b9150614659836131cb565b9250827fffffffffffffffffffffffffffffffffffffffffffffffffffffffffffffffff0382111561468e5761468d6143aa565b5b828201905092915050565b7f4552433732313a20617070726f766520746f2063616c6c657200000000000000600082015250565b60006146cf60198361311b565b91506146da82614699565b602082019050919050565b600060208201905081810360008301526146fe816146c2565b9050919050565b7f4552433732313a207472616e7366657220746f206e6f6e20455243373231526560008201527f63656976657220696d706c656d656e7465720000000000000000000000000000602082015250565b600061476160328361311b565b915061476c82614705565b604082019050919050565b6000602082019050818103600083015261479081614754565b9050919050565b7f4552433732314d657461646174613a2055524920717565727920666f72206e6f60008201527f6e6578697374656e7420746f6b656e0000000000000000000000000000000000602082015250565b60006147f3602f8361311b565b91506147fe82614797565b604082019050919050565b60006020820190508181036000830152614822816147e6565b9050919050565b7f4e487b7100000000000000000000000000000000000000000000000000000000600052601260045260246000fd5b6000614863826131cb565b915061486e836131cb565b92508261487e5761487d614829565b5b828204905092915050565b6000614894826131cb565b915061489f836131cb565b9250826148af576148ae614829565b5b828206905092915050565b600060808201905081810360008301526148d48187613170565b905081810360208301526148e88186613170565b905081810360408301526148fc8185613170565b905061490b60608301846135a1565b95945050505050565b600061491f826131cb565b915061492a836131cb565b9250817fffffffffffffffffffffffffffffffffffffffffffffffffffffffffffffffff0483118215151615614963576149626143aa565b5b828202905092915050565b7f45524337323155524953746f726167653a2055524920736574206f66206e6f6e60008201527f6578697374656e7420746f6b656e000000000000000000000000000000000000602082015250565b60006149ca602e8361311b565b91506149d58261496e565b604082019050919050565b600060208201905081810360008301526149f9816149bd565b9050919050565b60006060820190508181036000830152614a1a8186613170565b9050614a2960208301856135a1565b8181036040830152614a3b8184613170565b9050949350505050565b600081519050919050565b600082825260208201905092915050565b6000614a6c82614a45565b614a768185614a50565b9350614a8681856020860161312c565b614a8f8161315f565b840191505092915050565b6000608082019050614aaf6000830187613260565b614abc6020830186613260565b614ac960408301856135a1565b8181036060830152614adb8184614a61565b905095945050505050565b600081519050614af581613081565b92915050565b600060208284031215614b1157614b1061304b565b5b6000614b1f84828501614ae6565b91505092915050565b7f4552433732313a206d696e7420746f20746865207a65726f2061646472657373600082015250565b6000614b5e60208361311b565b9150614b6982614b28565b602082019050919050565b60006020820190508181036000830152614b8d81614b51565b9050919050565b7f4552433732313a20746f6b656e20616c7265616479206d696e74656400000000600082015250565b6000614bca601c8361311b565b9150614bd582614b94565b602082019050919050565b60006020820190508181036000830152614bf981614bbd565b905091905056fe5265676973746572696e672025732e2573206f6e2074686520636f6e7472616374207769746820746f6b656e49442025644142434445464748494a4b4c4d4e4f505152535455565758595a6162636465666768696a6b6c6d6e6f707172737475767778797a303132333435363738392b2fa264697066735822122003914340271320608441929f41b2a50f97ed1a63301db8509f8b6e48b8770c4764736f6c634300080a00333c73766720786d6c6e733d22687474703a2f2f7777772e77332e6f72672f323030302f737667222077696474683d2232373022206865696768743d22323730222066696c6c3d226e6f6e65223e3c706174682066696c6c3d2275726c282342292220643d224d302030683237307632373048307a222f3e3c646566733e3c66696c7465722069643d22412220636f6c6f722d696e746572706f6c6174696f6e2d66696c746572733d2273524742222066696c746572556e6974733d227573657253706163654f6e55736522206865696768743d22323730222077696474683d22323730223e3c666544726f70536861646f772064783d2230222064793d22312220737464446576696174696f6e3d22322220666c6f6f642d6f7061636974793d222e323235222077696474683d223230302522206865696768743d2232303025222f3e3c2f66696c7465723e3c2f646566733e3c7061746820643d224d37322e3836332034322e393439632d2e3636382d2e3338372d312e3432362d2e35392d322e3139372d2e3539732d312e3532392e3230342d322e3139372e35396c2d31302e30383120362e3033322d362e383520332e3933342d31302e30383120362e303332632d2e3636382e3338372d312e3432362e35392d322e3139372e3539732d312e3532392d2e3230342d322e3139372d2e35396c2d382e3031332d342e37323161342e353220342e35322030203020312d312e3538392d312e363136632d2e3338342d2e3636352d2e3539342d312e3431382d2e3630382d322e313837762d392e3331632d2e3031332d2e3737352e3138352d312e3533382e3537322d322e32303861342e323520342e323520302030203120312e3632352d312e3539356c372e3838342d342e3539632e3636382d2e33383720312e3432362d2e353920322e3139372d2e353973312e3532392e32303420322e3139372e35396c372e38383420342e353961342e353220342e353220302030203120312e35383920312e363136632e3338342e3636352e35393420312e3431382e36303820322e31383776362e3033326c362e38352d342e303635762d362e303332632e3031332d2e3737352d2e3138352d312e3533382d2e3537322d322e32303861342e323520342e32352030203020302d312e3632352d312e3539354c34312e3435362032342e3539632d2e3636382d2e3338372d312e3432362d2e35392d322e3139372d2e3539732d312e3532392e3230342d322e3139372e35396c2d31342e38363420382e36353561342e323520342e32352030203020302d312e36323520312e353935632d2e3338372e36372d2e35383520312e3433342d2e35373220322e3230387631372e343431632d2e3031332e3737352e31383520312e3533382e35373220322e32303861342e323520342e323520302030203020312e36323520312e3539356c31342e38363420382e363535632e3636382e33383720312e3432362e353920322e3139372e353973312e3532392d2e32303420322e3139372d2e35396c31302e3038312d352e39303120362e38352d342e3036352031302e3038312d352e393031632e3636382d2e33383720312e3432362d2e353920322e3139372d2e353973312e3532392e32303420322e3139372e35396c372e38383420342e353961342e353220342e353220302030203120312e35383920312e363136632e3338342e3636352e35393420312e3431382e36303820322e31383776392e333131632e3031332e3737352d2e31383520312e3533382d2e35373220322e32303861342e323520342e32352030203020312d312e36323520312e3539356c2d372e38383420342e373231632d2e3636382e3338372d312e3432362e35392d322e3139372e3539732d312e3532392d2e3230342d322e3139372d2e35396c2d372e3838342d342e353961342e353220342e35322030203020312d312e3538392d312e363136632d2e3338352d2e3636352d2e3539342d312e3431382d2e3630382d322e313837762d362e3033326c2d362e383520342e30363576362e303332632d2e3031332e3737352e31383520312e3533382e35373220322e32303861342e323520342e323520302030203020312e36323520312e3539356c31342e38363420382e363535632e3636382e33383720312e3432362e353920322e3139372e353973312e3532392d2e32303420322e3139372d2e35396c31342e3836342d382e363535632e3635372d2e33393420312e3230342d2e393520312e3538392d312e363136732e3539342d312e3431382e3630392d322e3138375635352e353338632e3031332d2e3737352d2e3138352d312e3533382d2e3537322d322e32303861342e323520342e32352030203020302d312e3632352d312e3539356c2d31342e3939332d382e3738367a222066696c6c3d2223666666222f3e3c646566733e3c6c696e6561724772616469656e742069643d2242222078313d2230222079313d2230222078323d22323730222079323d2232373022206772616469656e74556e6974733d227573657253706163654f6e557365223e3c73746f702073746f702d636f6c6f723d2223636235656565222f3e3c73746f70206f66667365743d2231222073746f702d636f6c6f723d2223306364376534222073746f702d6f7061636974793d222e3939222f3e3c2f6c696e6561724772616469656e743e3c2f646566733e3c7465787420783d2233322e352220793d223233312220666f6e742d73697a653d223237222066696c6c3d2223666666222066696c7465723d2275726c282341292220666f6e742d66616d696c793d22506c7573204a616b617274612053616e732c44656a6156752053616e732c4e6f746f20436f6c6f7220456d6f6a692c4170706c6520436f6c6f7220456d6f6a692c73616e732d73657269662220666f6e742d7765696768743d22626f6c64223e",
  "linkReferences": {},
  "deployedLinkReferences": {}
}